{
    "abi": [
        {
            "type": "constructor",
            "inputs": [
                {
                    "name": "initialOwner",
                    "type": "address",
                    "internalType": "address"
                }
            ],
            "stateMutability": "nonpayable"
        },
        {
            "type": "function",
            "name": "approve",
            "inputs": [
                {
                    "name": "to",
                    "type": "address",
                    "internalType": "address"
                },
                {
                    "name": "tokenId",
                    "type": "uint256",
                    "internalType": "uint256"
                }
            ],
            "outputs": [],
            "stateMutability": "nonpayable"
        },
        {
            "type": "function",
            "name": "balanceOf",
            "inputs": [
                {
                    "name": "owner",
                    "type": "address",
                    "internalType": "address"
                }
            ],
            "outputs": [
                {
                    "name": "",
                    "type": "uint256",
                    "internalType": "uint256"
                }
            ],
            "stateMutability": "view"
        },
        {
            "type": "function",
            "name": "getApproved",
            "inputs": [
                {
                    "name": "tokenId",
                    "type": "uint256",
                    "internalType": "uint256"
                }
            ],
            "outputs": [
                {
                    "name": "",
                    "type": "address",
                    "internalType": "address"
                }
            ],
            "stateMutability": "view"
        },
        {
            "type": "function",
            "name": "getEquipment",
            "inputs": [
                {
                    "name": "tokenId",
                    "type": "uint256",
                    "internalType": "uint256"
                }
            ],
            "outputs": [
                {
                    "name": "",
                    "type": "tuple",
                    "internalType": "struct EquipmentNFT.Equipment",
                    "components": [
                        {
                            "name": "name",
                            "type": "string",
                            "internalType": "string"
                        },
                        {
                            "name": "description",
                            "type": "string",
                            "internalType": "string"
                        },
                        {
                            "name": "imageUri",
                            "type": "string",
                            "internalType": "string"
                        },
                        {
                            "name": "isListed",
                            "type": "bool",
                            "internalType": "bool"
                        },
                        {
                            "name": "mintTime",
                            "type": "uint256",
                            "internalType": "uint256"
                        }
                    ]
                }
            ],
            "stateMutability": "view"
        },
        {
            "type": "function",
            "name": "getTotalSupply",
            "inputs": [],
            "outputs": [
                {
                    "name": "",
                    "type": "uint256",
                    "internalType": "uint256"
                }
            ],
            "stateMutability": "view"
        },
        {
            "type": "function",
            "name": "isApprovedForAll",
            "inputs": [
                {
                    "name": "owner",
                    "type": "address",
                    "internalType": "address"
                },
                {
                    "name": "operator",
                    "type": "address",
                    "internalType": "address"
                }
            ],
            "outputs": [
                {
                    "name": "",
                    "type": "bool",
                    "internalType": "bool"
                }
            ],
            "stateMutability": "view"
        },
        {
            "type": "function",
            "name": "mintEquipment",
            "inputs": [
                {
                    "name": "name",
                    "type": "string",
                    "internalType": "string"
                },
                {
                    "name": "description",
                    "type": "string",
                    "internalType": "string"
                },
                {
                    "name": "imageUri",
                    "type": "string",
                    "internalType": "string"
                }
            ],
            "outputs": [
                {
                    "name": "",
                    "type": "uint256",
                    "internalType": "uint256"
                }
            ],
            "stateMutability": "nonpayable"
        },
        {
            "type": "function",
            "name": "name",
            "inputs": [],
            "outputs": [
                {
                    "name": "",
                    "type": "string",
                    "internalType": "string"
                }
            ],
            "stateMutability": "view"
        },
        {
            "type": "function",
            "name": "owner",
            "inputs": [],
            "outputs": [
                {
                    "name": "",
                    "type": "address",
                    "internalType": "address"
                }
            ],
            "stateMutability": "view"
        },
        {
            "type": "function",
            "name": "ownerOf",
            "inputs": [
                {
                    "name": "tokenId",
                    "type": "uint256",
                    "internalType": "uint256"
                }
            ],
            "outputs": [
                {
                    "name": "",
                    "type": "address",
                    "internalType": "address"
                }
            ],
            "stateMutability": "view"
        },
        {
            "type": "function",
            "name": "renounceOwnership",
            "inputs": [],
            "outputs": [],
            "stateMutability": "nonpayable"
        },
        {
            "type": "function",
            "name": "rentalContractAddress",
            "inputs": [],
            "outputs": [
                {
                    "name": "",
                    "type": "address",
                    "internalType": "address"
                }
            ],
            "stateMutability": "view"
        },
        {
            "type": "function",
            "name": "safeTransferFrom",
            "inputs": [
                {
                    "name": "from",
                    "type": "address",
                    "internalType": "address"
                },
                {
                    "name": "to",
                    "type": "address",
                    "internalType": "address"
                },
                {
                    "name": "tokenId",
                    "type": "uint256",
                    "internalType": "uint256"
                }
            ],
            "outputs": [],
            "stateMutability": "nonpayable"
        },
        {
            "type": "function",
            "name": "safeTransferFrom",
            "inputs": [
                {
                    "name": "from",
                    "type": "address",
                    "internalType": "address"
                },
                {
                    "name": "to",
                    "type": "address",
                    "internalType": "address"
                },
                {
                    "name": "tokenId",
                    "type": "uint256",
                    "internalType": "uint256"
                },
                {
                    "name": "data",
                    "type": "bytes",
                    "internalType": "bytes"
                }
            ],
            "outputs": [],
            "stateMutability": "nonpayable"
        },
        {
            "type": "function",
            "name": "setApprovalForAll",
            "inputs": [
                {
                    "name": "operator",
                    "type": "address",
                    "internalType": "address"
                },
                {
                    "name": "approved",
                    "type": "bool",
                    "internalType": "bool"
                }
            ],
            "outputs": [],
            "stateMutability": "nonpayable"
        },
        {
            "type": "function",
            "name": "setRentalContract",
            "inputs": [
                {
                    "name": "_rentalContract",
                    "type": "address",
                    "internalType": "address"
                }
            ],
            "outputs": [],
            "stateMutability": "nonpayable"
        },
        {
            "type": "function",
            "name": "supportsInterface",
            "inputs": [
                {
                    "name": "interfaceId",
                    "type": "bytes4",
                    "internalType": "bytes4"
                }
            ],
            "outputs": [
                {
                    "name": "",
                    "type": "bool",
                    "internalType": "bool"
                }
            ],
            "stateMutability": "view"
        },
        {
            "type": "function",
            "name": "symbol",
            "inputs": [],
            "outputs": [
                {
                    "name": "",
                    "type": "string",
                    "internalType": "string"
                }
            ],
            "stateMutability": "view"
        },
        {
            "type": "function",
            "name": "tokenURI",
            "inputs": [
                {
                    "name": "tokenId",
                    "type": "uint256",
                    "internalType": "uint256"
                }
            ],
            "outputs": [
                {
                    "name": "",
                    "type": "string",
                    "internalType": "string"
                }
            ],
            "stateMutability": "view"
        },
        {
            "type": "function",
            "name": "transferFrom",
            "inputs": [
                {
                    "name": "from",
                    "type": "address",
                    "internalType": "address"
                },
                {
                    "name": "to",
                    "type": "address",
                    "internalType": "address"
                },
                {
                    "name": "tokenId",
                    "type": "uint256",
                    "internalType": "uint256"
                }
            ],
            "outputs": [],
            "stateMutability": "nonpayable"
        },
        {
            "type": "function",
            "name": "transferOwnership",
            "inputs": [
                {
                    "name": "newOwner",
                    "type": "address",
                    "internalType": "address"
                }
            ],
            "outputs": [],
            "stateMutability": "nonpayable"
        },
        {
            "type": "event",
            "name": "Approval",
            "inputs": [
                {
                    "name": "owner",
                    "type": "address",
                    "indexed": true,
                    "internalType": "address"
                },
                {
                    "name": "approved",
                    "type": "address",
                    "indexed": true,
                    "internalType": "address"
                },
                {
                    "name": "tokenId",
                    "type": "uint256",
                    "indexed": true,
                    "internalType": "uint256"
                }
            ],
            "anonymous": false
        },
        {
            "type": "event",
            "name": "ApprovalForAll",
            "inputs": [
                {
                    "name": "owner",
                    "type": "address",
                    "indexed": true,
                    "internalType": "address"
                },
                {
                    "name": "operator",
                    "type": "address",
                    "indexed": true,
                    "internalType": "address"
                },
                {
                    "name": "approved",
                    "type": "bool",
                    "indexed": false,
                    "internalType": "bool"
                }
            ],
            "anonymous": false
        },
        {
            "type": "event",
            "name": "EquipmentMinted",
            "inputs": [
                {
                    "name": "tokenId",
                    "type": "uint256",
                    "indexed": true,
                    "internalType": "uint256"
                },
                {
                    "name": "name",
                    "type": "string",
                    "indexed": false,
                    "internalType": "string"
                },
                {
                    "name": "owner",
                    "type": "address",
                    "indexed": false,
                    "internalType": "address"
                }
            ],
            "anonymous": false
        },
        {
            "type": "event",
            "name": "OwnershipTransferred",
            "inputs": [
                {
                    "name": "previousOwner",
                    "type": "address",
                    "indexed": true,
                    "internalType": "address"
                },
                {
                    "name": "newOwner",
                    "type": "address",
                    "indexed": true,
                    "internalType": "address"
                }
            ],
            "anonymous": false
        },
        {
            "type": "event",
            "name": "RentalContractSet",
            "inputs": [
                {
                    "name": "rentalContract",
                    "type": "address",
                    "indexed": true,
                    "internalType": "address"
                }
            ],
            "anonymous": false
        },
        {
            "type": "event",
            "name": "Transfer",
            "inputs": [
                {
                    "name": "from",
                    "type": "address",
                    "indexed": true,
                    "internalType": "address"
                },
                {
                    "name": "to",
                    "type": "address",
                    "indexed": true,
                    "internalType": "address"
                },
                {
                    "name": "tokenId",
                    "type": "uint256",
                    "indexed": true,
                    "internalType": "uint256"
                }
            ],
            "anonymous": false
        },
        {
            "type": "error",
            "name": "ERC721IncorrectOwner",
            "inputs": [
                {
                    "name": "sender",
                    "type": "address",
                    "internalType": "address"
                },
                {
                    "name": "tokenId",
                    "type": "uint256",
                    "internalType": "uint256"
                },
                {
                    "name": "owner",
                    "type": "address",
                    "internalType": "address"
                }
            ]
        },
        {
            "type": "error",
            "name": "ERC721InsufficientApproval",
            "inputs": [
                {
                    "name": "operator",
                    "type": "address",
                    "internalType": "address"
                },
                {
                    "name": "tokenId",
                    "type": "uint256",
                    "internalType": "uint256"
                }
            ]
        },
        {
            "type": "error",
            "name": "ERC721InvalidApprover",
            "inputs": [
                {
                    "name": "approver",
                    "type": "address",
                    "internalType": "address"
                }
            ]
        },
        {
            "type": "error",
            "name": "ERC721InvalidOperator",
            "inputs": [
                {
                    "name": "operator",
                    "type": "address",
                    "internalType": "address"
                }
            ]
        },
        {
            "type": "error",
            "name": "ERC721InvalidOwner",
            "inputs": [
                {
                    "name": "owner",
                    "type": "address",
                    "internalType": "address"
                }
            ]
        },
        {
            "type": "error",
            "name": "ERC721InvalidReceiver",
            "inputs": [
                {
                    "name": "receiver",
                    "type": "address",
                    "internalType": "address"
                }
            ]
        },
        {
            "type": "error",
            "name": "ERC721InvalidSender",
            "inputs": [
                {
                    "name": "sender",
                    "type": "address",
                    "internalType": "address"
                }
            ]
        },
        {
            "type": "error",
            "name": "ERC721NonexistentToken",
            "inputs": [
                {
                    "name": "tokenId",
                    "type": "uint256",
                    "internalType": "uint256"
                }
            ]
        },
        {
            "type": "error",
            "name": "OwnableInvalidOwner",
            "inputs": [
                {
                    "name": "owner",
                    "type": "address",
                    "internalType": "address"
                }
            ]
        },
        {
            "type": "error",
            "name": "OwnableUnauthorizedAccount",
            "inputs": [
                {
                    "name": "account",
                    "type": "address",
                    "internalType": "address"
                }
            ]
        }
    ],
    "bytecode": {
        "object": "0x608060405234801561000f575f5ffd5b506040516120e53803806120e583398101604081905261002e91610122565b806040518060400160405280600d81526020016c115c5d5a5c1b595b9d08139195609a1b815250604051806040016040528060048152602001631154541560e21b815250815f908161008091906101e7565b50600161008d82826101e7565b5050506001600160a01b0381166100bd57604051631e4fbdf760e01b81525f600482015260240160405180910390fd5b6100c6816100d1565b50505f6007556102a1565b600680546001600160a01b038381166001600160a01b0319831681179093556040519116919082907f8be0079c531659141344cd1fd0a4f28419497f9722a3daafe3b4186f6b6457e0905f90a35050565b5f60208284031215610132575f5ffd5b81516001600160a01b0381168114610148575f5ffd5b9392505050565b634e487b7160e01b5f52604160045260245ffd5b600181811c9082168061017757607f821691505b60208210810361019557634e487b7160e01b5f52602260045260245ffd5b50919050565b601f8211156101e257805f5260205f20601f840160051c810160208510156101c05750805b601f840160051c820191505b818110156101df575f81556001016101cc565b50505b505050565b81516001600160401b038111156102005761020061014f565b6102148161020e8454610163565b8461019b565b6020601f821160018114610246575f831561022f5750848201515b5f19600385901b1c1916600184901b1784556101df565b5f84815260208120601f198516915b828110156102755787850151825560209485019460019092019101610255565b508482101561029257868401515f19600387901b60f8161c191681555b50505050600190811b01905550565b611e37806102ae5f395ff3fe608060405234801561000f575f5ffd5b5060043610610132575f3560e01c8063715018a6116100b4578063a22cb46511610079578063a22cb46514610287578063b88d4fde1461029a578063c4e41b22146102ad578063c87b56dd146102b5578063e985e9c5146102c8578063f2fde38b146102db575f5ffd5b8063715018a614610233578063780c0b451461023b57806381dd2fa01461024e5780638da5cb5b1461026e57806395d89b411461027f575f5ffd5b80632498feb1116100fa5780632498feb1146101c657806342842e0e146101d95780635a63427e146101ec5780636352211e146101ff57806370a0823114610212575f5ffd5b806301ffc9a71461013657806306fdde031461015e578063081812fc14610173578063095ea7b31461019e57806323b872dd146101b3575b5f5ffd5b6101496101443660046116a0565b6102ee565b60405190151581526020015b60405180910390f35b61016661033f565b60405161015591906116e9565b6101866101813660046116fb565b6103ce565b6040516001600160a01b039091168152602001610155565b6101b16101ac36600461172d565b6103f5565b005b6101b16101c1366004611755565b610404565b600954610186906001600160a01b031681565b6101b16101e7366004611755565b61041e565b6101b16101fa36600461178f565b610429565b61018661020d3660046116fb565b6104c4565b61022561022036600461178f565b6104ce565b604051908152602001610155565b6101b1610513565b610225610249366004611851565b610526565b61026161025c3660046116fb565b6106c9565b60405161015591906118df565b6006546001600160a01b0316610186565b610166610939565b6101b1610295366004611958565b610948565b6101b16102a8366004611991565b610953565b600754610225565b6101666102c33660046116fb565b61096f565b6101496102d6366004611a08565b610c68565b6101b16102e936600461178f565b610c95565b5f6001600160e01b031982166380ac58cd60e01b148061031e57506001600160e01b03198216635b5e139f60e01b145b8061033957506301ffc9a760e01b6001600160e01b03198316145b92915050565b60605f805461034d90611a39565b80601f016020809104026020016040519081016040528092919081815260200182805461037990611a39565b80156103c45780601f1061039b576101008083540402835291602001916103c4565b820191905f5260205f20905b8154815290600101906020018083116103a757829003601f168201915b5050505050905090565b5f6103d882610cd2565b505f828152600460205260409020546001600160a01b0316610339565b610400828233610d0a565b5050565b61040f838383610d17565b6104198282610d9a565b505050565b61040f838383610dc2565b610431610ddc565b6001600160a01b03811661047b5760405162461bcd60e51b815260206004820152600c60248201526b5a65726f206164647265737360a01b60448201526064015b60405180910390fd5b600980546001600160a01b0319166001600160a01b0383169081179091556040517f6e22fe6a306e68b50de83a0c046759e26071b0d2776a8d7178a61443987f82ba905f90a250565b5f61033982610cd2565b5f6001600160a01b0382166104f8576040516322718ad960e21b81525f6004820152602401610472565b506001600160a01b03165f9081526003602052604090205490565b61051b610ddc565b6105245f610e09565b565b5f5f82511161056b5760405162461bcd60e51b8152602060048201526011602482015270496e76616c696420656d7074792055524960781b6044820152606401610472565b5f8451116105ab5760405162461bcd60e51b815260206004820152600d60248201526c13985b59481c995c5d5a5c9959609a1b6044820152606401610472565b600780545f91826105bb83611a85565b9190505590506105cb3382610e5a565b6040805160a08101825286815260208082018790528183018690525f606083018190524260808401528481526008909152919091208151819061060e9082611ae1565b50602082015160018201906106239082611ae1565b50604082015160028201906106389082611ae1565b50606082015160038201805460ff19169115159190911790556080909101516004909101556009546001600160a01b03161561068557600954610685906001600160a01b03168233610d0a565b807fbb13b811582573bc610d41ae1602a7d74db9abeab16fdcf343eb3c3c1df9b00986336040516106b7929190611b9c565b60405180910390a290505b9392505050565b6106fb6040518060a001604052806060815260200160608152602001606081526020015f151581526020015f81525090565b5f610705836104c4565b6001600160a01b0316036107525760405162461bcd60e51b8152602060048201526014602482015273151bdad95b88191bd95cc81b9bdd08195e1a5cdd60621b6044820152606401610472565b5f8281526008602052604090819020815160a0810190925280548290829061077990611a39565b80601f01602080910402602001604051908101604052809291908181526020018280546107a590611a39565b80156107f05780601f106107c7576101008083540402835291602001916107f0565b820191905f5260205f20905b8154815290600101906020018083116107d357829003601f168201915b5050505050815260200160018201805461080990611a39565b80601f016020809104026020016040519081016040528092919081815260200182805461083590611a39565b80156108805780601f1061085757610100808354040283529160200191610880565b820191905f5260205f20905b81548152906001019060200180831161086357829003601f168201915b5050505050815260200160028201805461089990611a39565b80601f01602080910402602001604051908101604052809291908181526020018280546108c590611a39565b80156109105780601f106108e757610100808354040283529160200191610910565b820191905f5260205f20905b8154815290600101906020018083116108f357829003601f168201915b5050509183525050600382015460ff161515602082015260049091015460409091015292915050565b60606001805461034d90611a39565b610400338383610e73565b61095f84848484610f11565b6109698383610d9a565b50505050565b60605f61097b836104c4565b6001600160a01b0316036109c85760405162461bcd60e51b8152602060048201526014602482015273151bdad95b88191bd95cc81b9bdd08195e1a5cdd60621b6044820152606401610472565b5f82815260086020526040808220815160a081019092528054829082906109ee90611a39565b80601f0160208091040260200160405190810160405280929190818152602001828054610a1a90611a39565b8015610a655780601f10610a3c57610100808354040283529160200191610a65565b820191905f5260205f20905b815481529060010190602001808311610a4857829003601f168201915b50505050508152602001600182018054610a7e90611a39565b80601f0160208091040260200160405190810160405280929190818152602001828054610aaa90611a39565b8015610af55780601f10610acc57610100808354040283529160200191610af5565b820191905f5260205f20905b815481529060010190602001808311610ad857829003601f168201915b50505050508152602001600282018054610b0e90611a39565b80601f0160208091040260200160405190810160405280929190818152602001828054610b3a90611a39565b8015610b855780601f10610b5c57610100808354040283529160200191610b85565b820191905f5260205f20905b815481529060010190602001808311610b6857829003601f168201915b5050509183525050600382015460ff1615156020808301919091526004909201546040918201528251918301519083015160608401519394505f93610be7576040518060400160405280600581526020016466616c736560d81b815250610c05565b604051806040016040528060048152602001637472756560e01b8152505b610c128660800151610f29565b604051602001610c26959493929190611bdc565b6040516020818303038152906040529050610c4081610fb9565b604051602001610c509190611cf0565b60405160208183030381529060405292505050919050565b6001600160a01b039182165f90815260056020908152604080832093909416825291909152205460ff1690565b610c9d610ddc565b6001600160a01b038116610cc657604051631e4fbdf760e01b81525f6004820152602401610472565b610ccf81610e09565b50565b5f818152600260205260408120546001600160a01b03168061033957604051637e27328960e01b815260048101849052602401610472565b6104198383836001610fdf565b6001600160a01b038216610d4057604051633250574960e11b81525f6004820152602401610472565b5f610d4c8383336110e3565b9050836001600160a01b0316816001600160a01b031614610969576040516364283d7b60e01b81526001600160a01b0380861660048301526024820184905282166044820152606401610472565b6009546001600160a01b03161561040057600954610400906001600160a01b03168284610d0a565b61041983838360405180602001604052805f815250610953565b6006546001600160a01b031633146105245760405163118cdaa760e01b8152336004820152602401610472565b600680546001600160a01b038381166001600160a01b0319831681179093556040519116919082907f8be0079c531659141344cd1fd0a4f28419497f9722a3daafe3b4186f6b6457e0905f90a35050565b610400828260405180602001604052805f8152506111d5565b6001600160a01b038216610ea557604051630b61174360e31b81526001600160a01b0383166004820152602401610472565b6001600160a01b038381165f81815260056020908152604080832094871680845294825291829020805460ff191686151590811790915591519182527f17307eab39ab6107e8899845ad3d59bd9653f200f220920489ca2b5937696c31910160405180910390a3505050565b610f1c848484610404565b61096933858585856111e8565b60605f610f3583611310565b60010190505f8167ffffffffffffffff811115610f5457610f546117a8565b6040519080825280601f01601f191660200182016040528015610f7e576020820181803683370190505b5090508181016020015b5f19016f181899199a1a9b1b9c1cb0b131b232b360811b600a86061a8153600a8504945084610f8857509392505050565b606061033982604051806060016040528060408152602001611dc26040913960016113e7565b8080610ff357506001600160a01b03821615155b156110b4575f61100284610cd2565b90506001600160a01b0383161580159061102e5750826001600160a01b0316816001600160a01b031614155b8015611041575061103f8184610c68565b155b1561106a5760405163a9fbf51f60e01b81526001600160a01b0384166004820152602401610472565b81156110b25783856001600160a01b0316826001600160a01b03167f8c5be1e5ebec7d5bd14f71427d1e84f3dd0314c0f7b2291e5b200ac8c7c3b92560405160405180910390a45b505b50505f90815260046020526040902080546001600160a01b0319166001600160a01b0392909216919091179055565b5f828152600260205260408120546001600160a01b039081169083161561110f5761110f818486611562565b6001600160a01b038116156111495761112a5f855f5f610fdf565b6001600160a01b0381165f90815260036020526040902080545f190190555b6001600160a01b03851615611177576001600160a01b0385165f908152600360205260409020805460010190555b5f8481526002602052604080822080546001600160a01b0319166001600160a01b0389811691821790925591518793918516917fddf252ad1be2c89b69c2b068fc378daa952ba7f163c4a11628f55a4df523b3ef91a4949350505050565b6111df83836115c6565b610419335f8585855b6001600160a01b0383163b1561130957604051630a85bd0160e11b81526001600160a01b0384169063150b7a029061122a908890889087908790600401611d21565b6020604051808303815f875af1925050508015611264575060408051601f3d908101601f1916820190925261126191810190611d5d565b60015b6112cb573d808015611291576040519150601f19603f3d011682016040523d82523d5f602084013e611296565b606091505b5080515f036112c357604051633250574960e11b81526001600160a01b0385166004820152602401610472565b805181602001fd5b6001600160e01b03198116630a85bd0160e11b1461130757604051633250574960e11b81526001600160a01b0385166004820152602401610472565b505b5050505050565b5f8072184f03e93ff9f4daa797ed6e38ed64bf6a1f0160401b831061134e5772184f03e93ff9f4daa797ed6e38ed64bf6a1f0160401b830492506040015b6d04ee2d6d415b85acef8100000000831061137a576d04ee2d6d415b85acef8100000000830492506020015b662386f26fc10000831061139857662386f26fc10000830492506010015b6305f5e10083106113b0576305f5e100830492506008015b61271083106113c457612710830492506004015b606483106113d6576064830492506002015b600a83106103395760010192915050565b606083515f03611405575060408051602081019091525f81526106c2565b5f826114355760038551600461141b9190611d78565b611426906002611d8f565b6114309190611da2565b61145a565b6003855160026114459190611d8f565b61144f9190611da2565b61145a906004611d78565b90505f8167ffffffffffffffff811115611476576114766117a8565b6040519080825280601f01601f1916602001820160405280156114a0576020820181803683370190505b509050600185016020820187885189016020810180515f82525b82841015611515576003840193508351603f8160121c168701518653600186019550603f81600c1c168701518653600186019550603f8160061c168701518653600186019550603f81168701518653506001850194506114ba565b90525050851561155657600388510660018114611539576002811461154c57611554565b603d6001830353603d6002830353611554565b603d60018303535b505b50909695505050505050565b61156d838383611627565b610419576001600160a01b03831661159b57604051637e27328960e01b815260048101829052602401610472565b60405163177e802f60e01b81526001600160a01b038316600482015260248101829052604401610472565b6001600160a01b0382166115ef57604051633250574960e11b81525f6004820152602401610472565b5f6115fb83835f6110e3565b90506001600160a01b03811615610419576040516339e3563760e11b81525f6004820152602401610472565b5f6001600160a01b038316158015906116835750826001600160a01b0316846001600160a01b0316148061166057506116608484610c68565b8061168357505f828152600460205260409020546001600160a01b038481169116145b949350505050565b6001600160e01b031981168114610ccf575f5ffd5b5f602082840312156116b0575f5ffd5b81356106c28161168b565b5f81518084528060208401602086015e5f602082860101526020601f19601f83011685010191505092915050565b602081525f6106c260208301846116bb565b5f6020828403121561170b575f5ffd5b5035919050565b80356001600160a01b0381168114611728575f5ffd5b919050565b5f5f6040838503121561173e575f5ffd5b61174783611712565b946020939093013593505050565b5f5f5f60608486031215611767575f5ffd5b61177084611712565b925061177e60208501611712565b929592945050506040919091013590565b5f6020828403121561179f575f5ffd5b6106c282611712565b634e487b7160e01b5f52604160045260245ffd5b5f5f67ffffffffffffffff8411156117d6576117d66117a8565b50604051601f19601f85018116603f0116810181811067ffffffffffffffff82111715611805576118056117a8565b60405283815290508082840185101561181c575f5ffd5b838360208301375f60208583010152509392505050565b5f82601f830112611842575f5ffd5b6106c2838335602085016117bc565b5f5f5f60608486031215611863575f5ffd5b833567ffffffffffffffff811115611879575f5ffd5b61188586828701611833565b935050602084013567ffffffffffffffff8111156118a1575f5ffd5b6118ad86828701611833565b925050604084013567ffffffffffffffff8111156118c9575f5ffd5b6118d586828701611833565b9150509250925092565b602081525f825160a060208401526118fa60c08401826116bb565b90506020840151601f1984830301604085015261191782826116bb565b9150506040840151601f1984830301606085015261193582826116bb565b915050606084015115156080840152608084015160a08401528091505092915050565b5f5f60408385031215611969575f5ffd5b61197283611712565b915060208301358015158114611986575f5ffd5b809150509250929050565b5f5f5f5f608085870312156119a4575f5ffd5b6119ad85611712565b93506119bb60208601611712565b925060408501359150606085013567ffffffffffffffff8111156119dd575f5ffd5b8501601f810187136119ed575f5ffd5b6119fc878235602084016117bc565b91505092959194509250565b5f5f60408385031215611a19575f5ffd5b611a2283611712565b9150611a3060208401611712565b90509250929050565b600181811c90821680611a4d57607f821691505b602082108103611a6b57634e487b7160e01b5f52602260045260245ffd5b50919050565b634e487b7160e01b5f52601160045260245ffd5b5f60018201611a9657611a96611a71565b5060010190565b601f82111561041957805f5260205f20601f840160051c81016020851015611ac25750805b601f840160051c820191505b81811015611309575f8155600101611ace565b815167ffffffffffffffff811115611afb57611afb6117a8565b611b0f81611b098454611a39565b84611a9d565b6020601f821160018114611b41575f8315611b2a5750848201515b5f19600385901b1c1916600184901b178455611309565b5f84815260208120601f198516915b82811015611b705787850151825560209485019460019092019101611b50565b5084821015611b8d57868401515f19600387901b60f8161c191681555b50505050600190811b01905550565b604081525f611bae60408301856116bb565b905060018060a01b03831660208301529392505050565b5f81518060208401855e5f93019283525090919050565b693d913730b6b2911d101160b11b81525f611bfa600a830188611bc5565b72111610113232b9b1b934b83a34b7b7111d101160691b8152611c206013820188611bc5565b6c1116101134b6b0b3b2911d101160991b81529050611c42600d820187611bc5565b7f222c202261747472696275746573223a205b7b2274726169745f74797065223a81527410112634b9ba32b2111610113b30b63ab2911d101160591b60208201529050611c926035820186611bc5565b7f227d2c207b2274726169745f74797065223a20224d696e742054696d65222c20815269113b30b63ab2911d101160b11b60208201529050611cd7602a820185611bc5565b63227d5d7d60e01b815260040198975050505050505050565b7f646174613a6170706c69636174696f6e2f6a736f6e3b6261736536342c00000081525f6106c2601d830184611bc5565b6001600160a01b03858116825284166020820152604081018390526080606082018190525f90611d53908301846116bb565b9695505050505050565b5f60208284031215611d6d575f5ffd5b81516106c28161168b565b808202811582820484141761033957610339611a71565b8082018082111561033957610339611a71565b5f82611dbc57634e487b7160e01b5f52601260045260245ffd5b50049056fe4142434445464748494a4b4c4d4e4f505152535455565758595a6162636465666768696a6b6c6d6e6f707172737475767778797a303132333435363738392b2fa2646970667358221220177d0ab62650b67eb47020244c725af2101bb6b0749c75063254b0d2b80dafe264736f6c634300081b0033",
        "linkReferences": {}
    },
    "methodIdentifiers": {
        "approve(address,uint256)": "095ea7b3",
        "balanceOf(address)": "70a08231",
        "getApproved(uint256)": "081812fc",
        "getEquipment(uint256)": "81dd2fa0",
        "getTotalSupply()": "c4e41b22",
        "isApprovedForAll(address,address)": "e985e9c5",
        "mintEquipment(string,string,string)": "780c0b45",
        "name()": "06fdde03",
        "owner()": "8da5cb5b",
        "ownerOf(uint256)": "6352211e",
        "renounceOwnership()": "715018a6",
        "rentalContractAddress()": "2498feb1",
        "safeTransferFrom(address,address,uint256)": "42842e0e",
        "safeTransferFrom(address,address,uint256,bytes)": "b88d4fde",
        "setApprovalForAll(address,bool)": "a22cb465",
        "setRentalContract(address)": "5a63427e",
        "supportsInterface(bytes4)": "01ffc9a7",
        "symbol()": "95d89b41",
        "tokenURI(uint256)": "c87b56dd",
        "transferFrom(address,address,uint256)": "23b872dd",
        "transferOwnership(address)": "f2fde38b"
    },
    "id": 44
}