{
    "abi": [
        {
            "type": "constructor",
            "inputs": [],
            "stateMutability": "nonpayable"
        },
        {
            "type": "fallback",
            "stateMutability": "payable"
        },
        {
            "type": "receive",
            "stateMutability": "payable"
        },
        {
            "type": "function",
            "name": "claimDeposit",
            "inputs": [
                {
                    "name": "tokenId",
                    "type": "uint256",
                    "internalType": "uint256"
                }
            ],
            "outputs": [],
            "stateMutability": "nonpayable"
        },
        {
            "type": "function",
            "name": "endRentAgreement",
            "inputs": [
                {
                    "name": "tokenId",
                    "type": "uint256",
                    "internalType": "uint256"
                }
            ],
            "outputs": [],
            "stateMutability": "nonpayable"
        },
        {
            "type": "function",
            "name": "getDisputeDays",
            "inputs": [],
            "outputs": [
                {
                    "name": "",
                    "type": "uint256",
                    "internalType": "uint256"
                }
            ],
            "stateMutability": "pure"
        },
        {
            "type": "function",
            "name": "getEquipmentDetails",
            "inputs": [
                {
                    "name": "tokenId",
                    "type": "uint256",
                    "internalType": "uint256"
                }
            ],
            "outputs": [
                {
                    "name": "rentalPrice",
                    "type": "uint256",
                    "internalType": "uint256"
                },
                {
                    "name": "depositRequired",
                    "type": "uint256",
                    "internalType": "uint256"
                },
                {
                    "name": "isListed",
                    "type": "bool",
                    "internalType": "bool"
                },
                {
                    "name": "isRented",
                    "type": "bool",
                    "internalType": "bool"
                }
            ],
            "stateMutability": "view"
        },
        {
            "type": "function",
            "name": "getNFTAddress",
            "inputs": [],
            "outputs": [
                {
                    "name": "",
                    "type": "address",
                    "internalType": "address"
                }
            ],
            "stateMutability": "view"
        },
        {
            "type": "function",
            "name": "getNFTCurrentOwner",
            "inputs": [
                {
                    "name": "tokenId",
                    "type": "uint256",
                    "internalType": "uint256"
                }
            ],
            "outputs": [
                {
                    "name": "",
                    "type": "address",
                    "internalType": "address"
                }
            ],
            "stateMutability": "view"
        },
        {
            "type": "function",
            "name": "getOwner",
            "inputs": [],
            "outputs": [
                {
                    "name": "",
                    "type": "address",
                    "internalType": "address"
                }
            ],
            "stateMutability": "view"
        },
        {
            "type": "function",
            "name": "getRentalDetails",
            "inputs": [
                {
                    "name": "tokenId",
                    "type": "uint256",
                    "internalType": "uint256"
                }
            ],
            "outputs": [
                {
                    "name": "renter",
                    "type": "address",
                    "internalType": "address"
                },
                {
                    "name": "startTime",
                    "type": "uint256",
                    "internalType": "uint256"
                },
                {
                    "name": "duration",
                    "type": "uint256",
                    "internalType": "uint256"
                },
                {
                    "name": "deposit",
                    "type": "uint256",
                    "internalType": "uint256"
                },
                {
                    "name": "isActive",
                    "type": "bool",
                    "internalType": "bool"
                },
                {
                    "name": "timeRemaining",
                    "type": "uint256",
                    "internalType": "uint256"
                }
            ],
            "stateMutability": "view"
        },
        {
            "type": "function",
            "name": "isApprovedForToken",
            "inputs": [
                {
                    "name": "owner",
                    "type": "address",
                    "internalType": "address"
                },
                {
                    "name": "tokenId",
                    "type": "uint256",
                    "internalType": "uint256"
                }
            ],
            "outputs": [
                {
                    "name": "",
                    "type": "bool",
                    "internalType": "bool"
                }
            ],
            "stateMutability": "view"
        },
        {
            "type": "function",
            "name": "listEquipments",
            "inputs": [
                {
                    "name": "tokenId",
                    "type": "uint256",
                    "internalType": "uint256"
                },
                {
                    "name": "rentAmount",
                    "type": "uint256",
                    "internalType": "uint256"
                },
                {
                    "name": "securityDepositeAmount",
                    "type": "uint256",
                    "internalType": "uint256"
                }
            ],
            "outputs": [],
            "stateMutability": "nonpayable"
        },
        {
            "type": "function",
            "name": "setNFTAddress",
            "inputs": [
                {
                    "name": "newNFTaddress",
                    "type": "address",
                    "internalType": "address"
                }
            ],
            "outputs": [],
            "stateMutability": "nonpayable"
        },
        {
            "type": "function",
            "name": "startRentAgreement",
            "inputs": [
                {
                    "name": "tokenId",
                    "type": "uint256",
                    "internalType": "uint256"
                },
                {
                    "name": "rentalDurationInDays",
                    "type": "uint256",
                    "internalType": "uint256"
                }
            ],
            "outputs": [],
            "stateMutability": "payable"
        },
        {
            "type": "function",
            "name": "withdraw",
            "inputs": [],
            "outputs": [],
            "stateMutability": "nonpayable"
        },
        {
            "type": "event",
            "name": "EquipmentListed",
            "inputs": [
                {
                    "name": "tokenId",
                    "type": "uint256",
                    "indexed": false,
                    "internalType": "uint256"
                },
                {
                    "name": "rentAmount",
                    "type": "uint256",
                    "indexed": false,
                    "internalType": "uint256"
                },
                {
                    "name": "deposite",
                    "type": "uint256",
                    "indexed": false,
                    "internalType": "uint256"
                }
            ],
            "anonymous": false
        },
        {
            "type": "event",
            "name": "NFTAddressUpdated",
            "inputs": [
                {
                    "name": "oldAddress",
                    "type": "address",
                    "indexed": true,
                    "internalType": "address"
                },
                {
                    "name": "newAddress",
                    "type": "address",
                    "indexed": true,
                    "internalType": "address"
                }
            ],
            "anonymous": false
        },
        {
            "type": "event",
            "name": "OwnerWithdraw",
            "inputs": [
                {
                    "name": "owner",
                    "type": "address",
                    "indexed": true,
                    "internalType": "address"
                },
                {
                    "name": "amount",
                    "type": "uint256",
                    "indexed": false,
                    "internalType": "uint256"
                }
            ],
            "anonymous": false
        },
        {
            "type": "event",
            "name": "ReleaseDeposite",
            "inputs": [
                {
                    "name": "renter",
                    "type": "address",
                    "indexed": true,
                    "internalType": "address"
                },
                {
                    "name": "tokenId",
                    "type": "uint256",
                    "indexed": false,
                    "internalType": "uint256"
                },
                {
                    "name": "amount",
                    "type": "uint256",
                    "indexed": false,
                    "internalType": "uint256"
                }
            ],
            "anonymous": false
        },
        {
            "type": "event",
            "name": "RentalCreated",
            "inputs": [
                {
                    "name": "renter",
                    "type": "address",
                    "indexed": true,
                    "internalType": "address"
                },
                {
                    "name": "tokenId",
                    "type": "uint256",
                    "indexed": false,
                    "internalType": "uint256"
                },
                {
                    "name": "renterAmount",
                    "type": "uint256",
                    "indexed": false,
                    "internalType": "uint256"
                },
                {
                    "name": "deposite",
                    "type": "uint256",
                    "indexed": false,
                    "internalType": "uint256"
                },
                {
                    "name": "rentalStart",
                    "type": "uint256",
                    "indexed": false,
                    "internalType": "uint256"
                },
                {
                    "name": "duration",
                    "type": "uint256",
                    "indexed": false,
                    "internalType": "uint256"
                }
            ],
            "anonymous": false
        },
        {
            "type": "error",
            "name": "ContractPaused",
            "inputs": []
        },
        {
            "type": "error",
            "name": "EquipmentIsRented",
            "inputs": []
        },
        {
            "type": "error",
            "name": "IncorrectAmount",
            "inputs": []
        },
        {
            "type": "error",
            "name": "Invalid_NFT_Address",
            "inputs": []
        },
        {
            "type": "error",
            "name": "NOT_OWNER",
            "inputs": []
        },
        {
            "type": "error",
            "name": "NotRenter",
            "inputs": []
        },
        {
            "type": "error",
            "name": "Not_Listed",
            "inputs": []
        },
        {
            "type": "error",
            "name": "ReentrancyGuardReentrantCall",
            "inputs": []
        },
        {
            "type": "error",
            "name": "TokenNoTOwner",
            "inputs": []
        }
    ],
    "bytecode": {
        "object": "0x60a060405261012c6001553480156014575f5ffd5b5060015f553360805260805161160661004a5f395f818161030b0152818161055c01528181610aaf0152610b7a01526116065ff3fe6080604052600436106100bb575f3560e01c80635f8534ae11610078578063893d20e811610055578063893d20e8146102fd578063995fb1b014610343578063a0d6e3e114610356578063b96184781461037557005b80635f8534ae146102a057806369d03738146102bf5780637aa959c9146102de57005b806317088b34146100bd5780632a8f8c7f1461011a57806332282f9e146101375780633ccfd60b146101665780633fd1a4a31461017a5780634da3b9c714610199575b005b3480156100c8575f5ffd5b506100dc6100d7366004611445565b610392565b604080516001600160a01b03909716875260208701959095529385019290925260608401521515608083015260a082015260c0015b60405180910390f35b348015610125575f5ffd5b5060405162093a808152602001610111565b348015610142575f5ffd5b50610156610151366004611470565b610459565b6040519015158152602001610111565b348015610171575f5ffd5b506100bb610551565b348015610185575f5ffd5b506100bb61019436600461149a565b6106cc565b3480156101a4575f5ffd5b506102786101b3366004611445565b5f81815260046020818152604080842081516080808201845282546001600160a01b03908116835260018085015484880190815260028087015486890190815260039788015460ff908116151560609889019081529d8d526005808c529c8a90208a5160e081018c5281549097168752948501549a86019a909a52908301549784019790975294810154938201939093529582015490941615159385018490529485015460a085015260069094015460c0909301929092529151905192519093909190565b6040805194855260208501939093529015159183019190915215156060820152608001610111565b3480156102ab575f5ffd5b506100bb6102ba366004611445565b6109ac565b3480156102ca575f5ffd5b506100bb6102d93660046114c3565b610aa4565b3480156102e9575f5ffd5b506100bb6102f8366004611445565b610b6f565b348015610308575f5ffd5b507f00000000000000000000000000000000000000000000000000000000000000005b6040516001600160a01b039091168152602001610111565b6100bb6103513660046114de565b610e2e565b348015610361575f5ffd5b5061032b610370366004611445565b611216565b348015610380575f5ffd5b506002546001600160a01b031661032b565b5f818152600560208181526040808420815160e08101835281546001600160a01b031681526001820154938101849052600282015492810192909252600381015460608301819052600482015460ff16151560808401529381015460a08301526006015460c082015283928392839283928392839161041091611512565b90505f8142101561042a576104254283611525565b61042c565b5f5b8351602085015160608601516040870151608090970151929e919d509b5094995097509550919350505050565b60025460405163e985e9c560e01b81526001600160a01b0384811660048301523060248301525f921690819063e985e9c590604401602060405180830381865afa1580156104a9573d5f5f3e3d5ffd5b505050506040513d601f19601f820116820180604052508101906104cd9190611538565b80610547575060405163020604bf60e21b81526004810184905230906001600160a01b0383169063081812fc90602401602060405180830381865afa158015610518573d5f5f3e3d5ffd5b505050506040513d601f19601f8201168201806040525081019061053c9190611557565b6001600160a01b0316145b9150505b92915050565b336001600160a01b037f0000000000000000000000000000000000000000000000000000000000000000161461059a576040516338ebc58960e11b815260040160405180910390fd5b6105a261128a565b335f90815260076020526040902054806105f05760405162461bcd60e51b815260206004820152600a6024820152694e6f2042616c616e636560b01b60448201526064015b60405180910390fd5b335f818152600760205260408082208290555190919083908381818185875af1925050503d805f811461063e576040519150601f19603f3d011682016040523d82523d5f602084013e610643565b606091505b505090508061068a5760405162461bcd60e51b815260206004820152601360248201527220b6b7bab73a103737ba103a3930b739b332b960691b60448201526064016105e7565b60405182815233907f13c461eb29f5d65800bbef5a5b05a06ea13b8b2ef4b889ee170f149bc1c8f8bd9060200160405180910390a250506106ca60015f55565b565b5f83815260056020526040902060040154839060ff161561070057604051633cf1165d60e11b815260040160405180910390fd5b6002546040516331a9108f60e11b8152600481018690526001600160a01b03909116905f908290636352211e90602401602060405180830381865afa15801561074b573d5f5f3e3d5ffd5b505050506040513d601f19601f8201168201806040525081019061076f9190611557565b9050336001600160a01b038216146107c95760405162461bcd60e51b815260206004820152601760248201527f4f6e6c79204e4654206f776e65722063616e206c69737400000000000000000060448201526064016105e7565b60405163e985e9c560e01b81526001600160a01b03828116600483015230602483015283169063e985e9c590604401602060405180830381865afa158015610813573d5f5f3e3d5ffd5b505050506040513d601f19601f820116820180604052508101906108379190611538565b806108b1575060405163020604bf60e21b81526004810187905230906001600160a01b0384169063081812fc90602401602060405180830381865afa158015610882573d5f5f3e3d5ffd5b505050506040513d601f19601f820116820180604052508101906108a69190611557565b6001600160a01b0316145b6108f55760405162461bcd60e51b815260206004820152601560248201527410dbdb9d1c9858dd081b9bdd08185c1c1c9bdd9959605a1b60448201526064016105e7565b604080516080810182526001600160a01b0383811682526020808301898152838501898152600160608087018281525f8f815260048752899020975188546001600160a01b031916971696909617875592519086015551600285015591516003909301805460ff19169315159390931790925582518981529182018890529181018690527f2c59891c28326f61e2a5f3a28d3818461b538cd23438b1368d46f9c994a9bfcf910160405180910390a1505050505050565b6109b461128a565b335f908152600860205260409020546109fc5760405162461bcd60e51b815260206004820152600a602482015269139bc819195c1bdcda5d60b21b60448201526064016105e7565b335f81815260086020526040808220805490839055905190929083908381818185875af1925050503d805f8114610a4e576040519150601f19603f3d011682016040523d82523d5f602084013e610a53565b606091505b5050905080610a965760405162461bcd60e51b815260206004820152600f60248201526e151c985b9cd9995c8819985a5b1959608a1b60448201526064016105e7565b5050610aa160015f55565b50565b336001600160a01b037f00000000000000000000000000000000000000000000000000000000000000001614610aed576040516338ebc58960e11b815260040160405180910390fd5b6001600160a01b038116610b14576040516302fbf97d60e21b815260040160405180910390fd5b6002546040516001600160a01b038084169216907f1cbafda1d3e86d2e79998cc2283d2ee2bf98ae4f357846dc71117847934d6244905f90a3600280546001600160a01b0319166001600160a01b0392909216919091179055565b336001600160a01b037f00000000000000000000000000000000000000000000000000000000000000001614610bb8576040516338ebc58960e11b815260040160405180910390fd5b610bc061128a565b5f818152600560205260409020600481015460ff16610c155760405162461bcd60e51b815260206004820152601160248201527052656e74616c206e6f742061637469766560781b60448201526064016105e7565b80546002546040516331a9108f60e11b8152600481018590526001600160a01b03928316929091169082908290636352211e90602401602060405180830381865afa158015610c66573d5f5f3e3d5ffd5b505050506040513d601f19601f82011682018060405250810190610c8a9190611557565b6001600160a01b031603610d11575f84815260046020819052604091829020549151632142170760e11b81526001600160a01b03858116928201929092529181166024830152604482018690528216906342842e0e906064015f604051808303815f87803b158015610cfa575f5ffd5b505af1158015610d0c573d5f5f3e3d5ffd5b505050505b5f848152600460208190526040918290205491516331a9108f60e11b81529081018690526001600160a01b0391821691829190841690636352211e90602401602060405180830381865afa158015610d6b573d5f5f3e3d5ffd5b505050506040513d601f19601f82011682018060405250810190610d8f9190611557565b6001600160a01b031603610dab57610da6856112b2565b610e0e565b604051806060016040528062093a8042610dc59190611512565b8152600286810154602080840191909152600160409384018190525f8a81526006835284902085518155918501519082015592909101519101805460ff19169115159190911790555b610e1785611389565b505050600401805460ff19169055610aa160015f55565b610e3661128a565b5f82815260056020526040902060040154829060ff1615610e6a57604051633cf1165d60e11b815260040160405180910390fd5b5f610e786201518084611572565b5f85815260046020908152604091829020825160808101845281546001600160a01b0316815260018201549281019290925260028101549282019290925260039091015460ff1615156060820181905291925090610ee95760405163ae7c7f1160e01b815260040160405180910390fd5b5f848260200151610efa9190611572565b90505f61271060015483610f0e9190611572565b610f189190611589565b90505f836040015183610f2b9190611512565b905080341015610f4e576040516334b2073960e11b815260040160405180910390fd5b60025484516040516331a9108f60e11b8152600481018b90526001600160a01b0392831692909116908290636352211e90602401602060405180830381865afa158015610f9d573d5f5f3e3d5ffd5b505050506040513d601f19601f82011682018060405250810190610fc19190611557565b6001600160a01b03161461100b5760405162461bcd60e51b81526020600482015260116024820152700496e76616c6964206f776e65727368697607c1b60448201526064016105e7565b6040518060e00160405280336001600160a01b03168152602001428152602001866040015181526020018781526020016001151581526020018581526020014281525060055f8b81526020019081526020015f205f820151815f015f6101000a8154816001600160a01b0302191690836001600160a01b031602179055506020820151816001015560408201518160020155606082015181600301556080820151816004015f6101000a81548160ff02191690831515021790555060a0820151816005015560c0820151816006015590505082846110e99190611525565b85516001600160a01b03165f9081526007602052604081208054909190611111908490611512565b9091555050600380546001810182555f919091527fc2575a0e9e593c00f959f8c92f12db2869c3395a3b0502d05e2516446f71f85b018990558451604051632142170760e11b81526001600160a01b039182166004820152336024820152604481018b9052908216906342842e0e906064015f604051808303815f87803b15801561119a575f5ffd5b505af11580156111ac573d5f5f3e3d5ffd5b50505060408087015181518c81526020810188905291820152426060820152608081018890523391507f54d2fb9eb3117e745b84d6bc809f5d1bbc6ac32ce060ac16936f52cd56ab5f3f9060a00160405180910390a25050505050505061121260015f55565b5050565b6002546040516331a9108f60e11b8152600481018390525f916001600160a01b0316908190636352211e90602401602060405180830381865afa15801561125f573d5f5f3e3d5ffd5b505050506040513d601f19601f820116820180604052508101906112839190611557565b9392505050565b60025f54036112ac57604051633ee5aeb560e01b815260040160405180910390fd5b60025f55565b5f818152600560208181526040808420815160e08101835281546001600160a01b0316808252600183015482860152600283015482850181905260038401546060840152600484015460ff16151560808401529583015460a083015260069092015460c082015290855260089092528320805491939091611334908490611512565b90915550508051604080830151815185815260208101919091526001600160a01b03909216917fbe198283899bfb541948af347a62d8bd327296fd35c84fb8177188f83208446a910160405180910390a25050565b5f5b6003548110156112125781600382815481106113a9576113a96115a8565b905f5260205f2001540361143d576003546113c690600190611525565b81101561141557600380546113dd90600190611525565b815481106113ed576113ed6115a8565b905f5260205f20015460038281548110611409576114096115a8565b5f918252602090912001555b6003805480611426576114266115bc565b600190038181905f5260205f20015f905590555050565b60010161138b565b5f60208284031215611455575f5ffd5b5035919050565b6001600160a01b0381168114610aa1575f5ffd5b5f5f60408385031215611481575f5ffd5b823561148c8161145c565b946020939093013593505050565b5f5f5f606084860312156114ac575f5ffd5b505081359360208301359350604090920135919050565b5f602082840312156114d3575f5ffd5b81356112838161145c565b5f5f604083850312156114ef575f5ffd5b50508035926020909101359150565b634e487b7160e01b5f52601160045260245ffd5b8082018082111561054b5761054b6114fe565b8181038181111561054b5761054b6114fe565b5f60208284031215611548575f5ffd5b81518015158114611283575f5ffd5b5f60208284031215611567575f5ffd5b81516112838161145c565b808202811582820484141761054b5761054b6114fe565b5f826115a357634e487b7160e01b5f52601260045260245ffd5b500490565b634e487b7160e01b5f52603260045260245ffd5b634e487b7160e01b5f52603160045260245ffdfea264697066735822122050f1235c8dbbb7ce4be2bb82bb496421246e0d371d238a8826225f44110cef8464736f6c634300081b0033",
        "linkReferences": {}
    },
    "methodIdentifiers": {
        "claimDeposit(uint256)": "5f8534ae",
        "endRentAgreement(uint256)": "7aa959c9",
        "getDisputeDays()": "2a8f8c7f",
        "getEquipmentDetails(uint256)": "4da3b9c7",
        "getNFTAddress()": "b9618478",
        "getNFTCurrentOwner(uint256)": "a0d6e3e1",
        "getOwner()": "893d20e8",
        "getRentalDetails(uint256)": "17088b34",
        "isApprovedForToken(address,uint256)": "32282f9e",
        "listEquipments(uint256,uint256,uint256)": "3fd1a4a3",
        "setNFTAddress(address)": "69d03738",
        "startRentAgreement(uint256,uint256)": "995fb1b0",
        "withdraw()": "3ccfd60b"
    },
    "id": 23
}